{
  "_format": "hh-sol-artifact-1",
  "contractName": "OneVote",
  "sourceName": "contracts/OneVote.sol",
  "abi": [
    {
      "inputs": [
        {
          "internalType": "bytes32[]",
          "name": "proposalNames",
          "type": "bytes32[]"
        }
      ],
      "stateMutability": "nonpayable",
      "type": "constructor"
    },
    {
      "inputs": [],
      "name": "_owner",
      "outputs": [
        {
          "internalType": "address",
          "name": "",
          "type": "address"
        }
      ],
      "stateMutability": "view",
      "type": "function"
    },
    {
      "inputs": [],
      "name": "getStruct",
      "outputs": [
        {
          "components": [
            {
              "internalType": "bytes32",
              "name": "name",
              "type": "bytes32"
            },
            {
              "internalType": "uint256",
              "name": "voteCount",
              "type": "uint256"
            }
          ],
          "internalType": "struct OneVote.Proposal[]",
          "name": "",
          "type": "tuple[]"
        }
      ],
      "stateMutability": "view",
      "type": "function"
    },
    {
      "inputs": [
        {
          "internalType": "address",
          "name": "voter",
          "type": "address"
        }
      ],
      "name": "giveRightToVote",
      "outputs": [],
      "stateMutability": "nonpayable",
      "type": "function"
    },
    {
      "inputs": [],
      "name": "propCount",
      "outputs": [
        {
          "internalType": "uint256",
          "name": "",
          "type": "uint256"
        }
      ],
      "stateMutability": "view",
      "type": "function"
    },
    {
      "inputs": [
        {
          "internalType": "uint256",
          "name": "",
          "type": "uint256"
        }
      ],
      "name": "proposals",
      "outputs": [
        {
          "internalType": "bytes32",
          "name": "name",
          "type": "bytes32"
        },
        {
          "internalType": "uint256",
          "name": "voteCount",
          "type": "uint256"
        }
      ],
      "stateMutability": "view",
      "type": "function"
    },
    {
      "inputs": [
        {
          "internalType": "uint256",
          "name": "proposal",
          "type": "uint256"
        }
      ],
      "name": "vote",
      "outputs": [],
      "stateMutability": "nonpayable",
      "type": "function"
    },
    {
      "inputs": [
        {
          "internalType": "address",
          "name": "",
          "type": "address"
        }
      ],
      "name": "voters",
      "outputs": [
        {
          "internalType": "uint256",
          "name": "weight",
          "type": "uint256"
        },
        {
          "internalType": "bool",
          "name": "voted",
          "type": "bool"
        },
        {
          "internalType": "uint256",
          "name": "vote",
          "type": "uint256"
        }
      ],
      "stateMutability": "view",
      "type": "function"
    },
    {
      "inputs": [],
      "name": "winnerName",
      "outputs": [
        {
          "internalType": "bytes32",
          "name": "winnerName_",
          "type": "bytes32"
        }
      ],
      "stateMutability": "view",
      "type": "function"
    },
    {
      "inputs": [],
      "name": "winningProposal",
      "outputs": [
        {
          "internalType": "uint256",
          "name": "winningProposal_",
          "type": "uint256"
        }
      ],
      "stateMutability": "view",
      "type": "function"
    }
  ],
  "bytecode": "0x60806040523480156200001157600080fd5b50604051620011a2380380620011a2833981810160405281019062000037919062000276565b6000600381905550336000806101000a81548173ffffffffffffffffffffffffffffffffffffffff021916908373ffffffffffffffffffffffffffffffffffffffff16021790555060018060008060009054906101000a900473ffffffffffffffffffffffffffffffffffffffff1673ffffffffffffffffffffffffffffffffffffffff1673ffffffffffffffffffffffffffffffffffffffff1681526020019081526020016000206000018190555060005b81518110156200013857620001228282815181106200010e576200010d620003e6565b5b60200260200101516200014060201b60201c565b80806200012f9062000369565b915050620000ea565b505062000483565b604051806040016040528082815260200160008152506002600354815481106200016f576200016e620003e6565b5b9060005260206000209060020201600082015181600001556020820151816001015590505060036000815480929190620001a99062000369565b919050555050565b6000620001c8620001c284620002f0565b620002c7565b90508083825260208201905082856020860282011115620001ee57620001ed62000449565b5b60005b858110156200022257816200020788826200025f565b845260208401935060208301925050600181019050620001f1565b5050509392505050565b600082601f83011262000244576200024362000444565b5b815162000256848260208601620001b1565b91505092915050565b600081519050620002708162000469565b92915050565b6000602082840312156200028f576200028e62000453565b5b600082015167ffffffffffffffff811115620002b057620002af6200044e565b5b620002be848285016200022c565b91505092915050565b6000620002d3620002e6565b9050620002e1828262000333565b919050565b6000604051905090565b600067ffffffffffffffff8211156200030e576200030d62000415565b5b602082029050602081019050919050565b6000819050919050565b6000819050919050565b6200033e8262000458565b810181811067ffffffffffffffff8211171562000360576200035f62000415565b5b80604052505050565b6000620003768262000329565b91507fffffffffffffffffffffffffffffffffffffffffffffffffffffffffffffffff821415620003ac57620003ab620003b7565b5b600182019050919050565b7f4e487b7100000000000000000000000000000000000000000000000000000000600052601160045260246000fd5b7f4e487b7100000000000000000000000000000000000000000000000000000000600052603260045260246000fd5b7f4e487b7100000000000000000000000000000000000000000000000000000000600052604160045260246000fd5b600080fd5b600080fd5b600080fd5b600080fd5b6000601f19601f8301169050919050565b62000474816200031f565b81146200048057600080fd5b50565b610d0f80620004936000396000f3fe608060405234801561001057600080fd5b50600436106100935760003560e01c8063609ff1bd11610066578063609ff1bd146101215780639e7b8d611461013f578063a3ec138d1461015b578063b2bdfa7b1461018d578063e2ba53f0146101ab57610093565b80630121b93f14610098578063013cf08b146100b457806309b1b3f2146100e557806333bc7bf014610103575b600080fd5b6100b260048036038101906100ad9190610775565b6101c9565b005b6100ce60048036038101906100c99190610775565b610310565b6040516100dc929190610962565b60405180910390f35b6100ed610344565b6040516100fa9190610925565b60405180910390f35b61010b61042d565b60405161011891906109eb565b60405180910390f35b610129610433565b60405161013691906109eb565b60405180910390f35b61015960048036038101906101549190610748565b6104bb565b005b61017560048036038101906101709190610748565b610672565b60405161018493929190610a06565b60405180910390f35b6101956106a9565b6040516101a2919061090a565b60405180910390f35b6101b36106cd565b6040516101c09190610947565b60405180910390f35b6000600160003373ffffffffffffffffffffffffffffffffffffffff1673ffffffffffffffffffffffffffffffffffffffff1681526020019081526020016000209050600081600001541415610254576040517f08c379a000000000000000000000000000000000000000000000000000000000815260040161024b9061098b565b60405180910390fd5b8060010160009054906101000a900460ff16156102a6576040517f08c379a000000000000000000000000000000000000000000000000000000000815260040161029d906109ab565b60405180910390fd5b60018160010160006101000a81548160ff0219169083151502179055508181600201819055508060000154600283815481106102e5576102e4610ba7565b5b906000526020600020906002020160010160008282546103059190610a87565b925050819055505050565b6002818154811061032057600080fd5b90600052602060002090600202016000915090508060000154908060010154905082565b6060600060035467ffffffffffffffff81111561036457610363610bd6565b5b60405190808252806020026020018201604052801561039d57816020015b61038a610701565b8152602001906001900390816103825790505b50905060005b600354811015610425576000600282815481106103c3576103c2610ba7565b5b90600052602060002090600202019050806040518060400160405290816000820154815260200160018201548152505083838151811061040657610405610ba7565b5b602002602001018190525050808061041d90610b2f565b9150506103a3565b508091505090565b60035481565b6000806000905060005b6002805490508110156104b657816002828154811061045f5761045e610ba7565b5b90600052602060002090600202016001015411156104a3576002818154811061048b5761048a610ba7565b5b90600052602060002090600202016001015491508092505b80806104ae90610b2f565b91505061043d565b505090565b60008054906101000a900473ffffffffffffffffffffffffffffffffffffffff1673ffffffffffffffffffffffffffffffffffffffff163373ffffffffffffffffffffffffffffffffffffffff1614610549576040517f08c379a0000000000000000000000000000000000000000000000000000000008152600401610540906109cb565b60405180910390fd5b600160008273ffffffffffffffffffffffffffffffffffffffff1673ffffffffffffffffffffffffffffffffffffffff16815260200190815260200160002060010160009054906101000a900460ff16156105d9576040517f08c379a00000000000000000000000000000000000000000000000000000000081526004016105d0906109ab565b60405180910390fd5b6000600160008373ffffffffffffffffffffffffffffffffffffffff1673ffffffffffffffffffffffffffffffffffffffff168152602001908152602001600020600001541461062857600080fd5b60018060008373ffffffffffffffffffffffffffffffffffffffff1673ffffffffffffffffffffffffffffffffffffffff1681526020019081526020016000206000018190555050565b60016020528060005260406000206000915090508060000154908060010160009054906101000a900460ff16908060020154905083565b60008054906101000a900473ffffffffffffffffffffffffffffffffffffffff1681565b600060026106d9610433565b815481106106ea576106e9610ba7565b5b906000526020600020906002020160000154905090565b604051806040016040528060008019168152602001600081525090565b60008135905061072d81610cab565b92915050565b60008135905061074281610cc2565b92915050565b60006020828403121561075e5761075d610c05565b5b600061076c8482850161071e565b91505092915050565b60006020828403121561078b5761078a610c05565b5b600061079984828501610733565b91505092915050565b60006107ae83836108bd565b60408301905092915050565b6107c381610add565b82525050565b60006107d482610a4d565b6107de8185610a65565b93506107e983610a3d565b8060005b8381101561081a57815161080188826107a2565b975061080c83610a58565b9250506001810190506107ed565b5085935050505092915050565b61083081610aef565b82525050565b61083f81610afb565b82525050565b61084e81610afb565b82525050565b6000610861601083610a76565b915061086c82610c0a565b602082019050919050565b6000610884601a83610a76565b915061088f82610c33565b602082019050919050565b60006108a7602483610a76565b91506108b282610c5c565b604082019050919050565b6040820160008201516108d36000850182610836565b5060208201516108e660208501826108ec565b50505050565b6108f581610b25565b82525050565b61090481610b25565b82525050565b600060208201905061091f60008301846107ba565b92915050565b6000602082019050818103600083015261093f81846107c9565b905092915050565b600060208201905061095c6000830184610845565b92915050565b60006040820190506109776000830185610845565b61098460208301846108fb565b9392505050565b600060208201905081810360008301526109a481610854565b9050919050565b600060208201905081810360008301526109c481610877565b9050919050565b600060208201905081810360008301526109e48161089a565b9050919050565b6000602082019050610a0060008301846108fb565b92915050565b6000606082019050610a1b60008301866108fb565b610a286020830185610827565b610a3560408301846108fb565b949350505050565b6000819050602082019050919050565b600081519050919050565b6000602082019050919050565b600082825260208201905092915050565b600082825260208201905092915050565b6000610a9282610b25565b9150610a9d83610b25565b9250827fffffffffffffffffffffffffffffffffffffffffffffffffffffffffffffffff03821115610ad257610ad1610b78565b5b828201905092915050565b6000610ae882610b05565b9050919050565b60008115159050919050565b6000819050919050565b600073ffffffffffffffffffffffffffffffffffffffff82169050919050565b6000819050919050565b6000610b3a82610b25565b91507fffffffffffffffffffffffffffffffffffffffffffffffffffffffffffffffff821415610b6d57610b6c610b78565b5b600182019050919050565b7f4e487b7100000000000000000000000000000000000000000000000000000000600052601160045260246000fd5b7f4e487b7100000000000000000000000000000000000000000000000000000000600052603260045260246000fd5b7f4e487b7100000000000000000000000000000000000000000000000000000000600052604160045260246000fd5b600080fd5b7f4e6f20726967687420746f20766f746500000000000000000000000000000000600082015250565b7f54686973206164647265737320616c726561647920766f746564000000000000600082015250565b7f4f6e6c7920746865206f776e65722063616e2075736520746869732066756e6360008201527f74696f6e00000000000000000000000000000000000000000000000000000000602082015250565b610cb481610add565b8114610cbf57600080fd5b50565b610ccb81610b25565b8114610cd657600080fd5b5056fea2646970667358221220cd03c57a7e73db115039b56e16f66f6f7aeec385bc3adcf36dbaa0916f0f829364736f6c63430008070033",
  "linkReferences": {},
  "deployedLinkReferences": {}
}