{
  "_format": "hh-sol-artifact-1",
  "contractName": "OneVote",
  "sourceName": "contracts/OneVote.sol",
  "abi": [
    {
      "inputs": [
        {
          "internalType": "bytes32[]",
          "name": "proposalNames",
          "type": "bytes32[]"
        }
      ],
      "stateMutability": "nonpayable",
      "type": "constructor"
    },
    {
      "inputs": [],
      "name": "_owner",
      "outputs": [
        {
          "internalType": "address",
          "name": "",
          "type": "address"
        }
      ],
      "stateMutability": "view",
      "type": "function"
    },
    {
      "inputs": [
        {
          "internalType": "address[]",
          "name": "addVoters",
          "type": "address[]"
        }
      ],
      "name": "approveManyVoters",
      "outputs": [],
      "stateMutability": "nonpayable",
      "type": "function"
    },
    {
      "inputs": [],
      "name": "getNames",
      "outputs": [
        {
          "internalType": "bytes32[]",
          "name": "",
          "type": "bytes32[]"
        }
      ],
      "stateMutability": "view",
      "type": "function"
    },
    {
      "inputs": [],
      "name": "getStruct",
      "outputs": [
        {
          "components": [
            {
              "internalType": "bytes32",
              "name": "name",
              "type": "bytes32"
            },
            {
              "internalType": "uint256",
              "name": "voteCount",
              "type": "uint256"
            }
          ],
          "internalType": "struct OneVote.Proposal[]",
          "name": "",
          "type": "tuple[]"
        }
      ],
      "stateMutability": "view",
      "type": "function"
    },
    {
      "inputs": [],
      "name": "getVotes",
      "outputs": [
        {
          "internalType": "uint256[]",
          "name": "",
          "type": "uint256[]"
        }
      ],
      "stateMutability": "view",
      "type": "function"
    },
    {
      "inputs": [
        {
          "internalType": "address",
          "name": "voter",
          "type": "address"
        }
      ],
      "name": "giveRightToVote",
      "outputs": [],
      "stateMutability": "nonpayable",
      "type": "function"
    },
    {
      "inputs": [],
      "name": "propCount",
      "outputs": [
        {
          "internalType": "uint256",
          "name": "",
          "type": "uint256"
        }
      ],
      "stateMutability": "view",
      "type": "function"
    },
    {
      "inputs": [
        {
          "internalType": "uint256",
          "name": "",
          "type": "uint256"
        }
      ],
      "name": "proposals",
      "outputs": [
        {
          "internalType": "bytes32",
          "name": "name",
          "type": "bytes32"
        },
        {
          "internalType": "uint256",
          "name": "voteCount",
          "type": "uint256"
        }
      ],
      "stateMutability": "view",
      "type": "function"
    },
    {
      "inputs": [
        {
          "internalType": "uint256",
          "name": "proposal",
          "type": "uint256"
        }
      ],
      "name": "vote",
      "outputs": [],
      "stateMutability": "nonpayable",
      "type": "function"
    },
    {
      "inputs": [
        {
          "internalType": "address",
          "name": "",
          "type": "address"
        }
      ],
      "name": "voters",
      "outputs": [
        {
          "internalType": "uint256",
          "name": "weight",
          "type": "uint256"
        },
        {
          "internalType": "bool",
          "name": "voted",
          "type": "bool"
        },
        {
          "internalType": "uint256",
          "name": "vote",
          "type": "uint256"
        }
      ],
      "stateMutability": "view",
      "type": "function"
    },
    {
      "inputs": [],
      "name": "winnerName",
      "outputs": [
        {
          "internalType": "bytes32",
          "name": "winnerName_",
          "type": "bytes32"
        }
      ],
      "stateMutability": "view",
      "type": "function"
    },
    {
      "inputs": [],
      "name": "winningProposal",
      "outputs": [
        {
          "internalType": "uint256",
          "name": "winningProposal_",
          "type": "uint256"
        }
      ],
      "stateMutability": "view",
      "type": "function"
    }
  ],
  "bytecode": "0x60806040523480156200001157600080fd5b5060405162001d8a38038062001d8a8339818101604052810190620000379190620003cf565b6000600381905550336000806101000a81548173ffffffffffffffffffffffffffffffffffffffff021916908373ffffffffffffffffffffffffffffffffffffffff16021790555060018060008060009054906101000a900473ffffffffffffffffffffffffffffffffffffffff1673ffffffffffffffffffffffffffffffffffffffff1673ffffffffffffffffffffffffffffffffffffffff16815260200190815260200160002060000181905550620001346040518060400160405280601881526020017f4e756d626572206f662063616e646964617465733a202573000000000000000081525082516200023b60201b62000c211760201c565b60005b815181101562000233576002604051806040016040528084848151811062000164576200016362000617565b5b60200260200101518152602001600081525090806001815401808255809150506001900390600052602060002090600202016000909190919091506000820151816000015560208201518160010155505060036000815480929190620001ca906200059a565b91905055506200021d6040518060400160405280601f81526020017f5468652070726f706f73616c206e756d62657220257320776173206d616465008152506003546200023b60201b62000c211760201c565b80806200022a906200059a565b91505062000137565b5050620006b4565b620002dd82826040516024016200025492919062000472565b6040516020818303038152906040527f9710a9d0000000000000000000000000000000000000000000000000000000007bffffffffffffffffffffffffffffffffffffffffffffffffffffffff19166020820180517bffffffffffffffffffffffffffffffffffffffffffffffffffffffff8381831617835250505050620002e160201b60201c565b5050565b60008151905060006a636f6e736f6c652e6c6f679050602083016000808483855afa5050505050565b6000620003216200031b84620004cf565b620004a6565b905080838252602082019050828560208602820111156200034757620003466200067a565b5b60005b858110156200037b5781620003608882620003b8565b8452602084019350602083019250506001810190506200034a565b5050509392505050565b600082601f8301126200039d576200039c62000675565b5b8151620003af8482602086016200030a565b91505092915050565b600081519050620003c9816200069a565b92915050565b600060208284031215620003e857620003e762000684565b5b600082015167ffffffffffffffff8111156200040957620004086200067f565b5b620004178482850162000385565b91505092915050565b60006200042d82620004fe565b62000439818562000509565b93506200044b8185602086016200052e565b620004568162000689565b840191505092915050565b6200046c8162000524565b82525050565b600060408201905081810360008301526200048e818562000420565b90506200049f602083018462000461565b9392505050565b6000620004b2620004c5565b9050620004c0828262000564565b919050565b6000604051905090565b600067ffffffffffffffff821115620004ed57620004ec62000646565b5b602082029050602081019050919050565b600081519050919050565b600082825260208201905092915050565b6000819050919050565b6000819050919050565b60005b838110156200054e57808201518184015260208101905062000531565b838111156200055e576000848401525b50505050565b6200056f8262000689565b810181811067ffffffffffffffff8211171562000591576200059062000646565b5b80604052505050565b6000620005a78262000524565b91507fffffffffffffffffffffffffffffffffffffffffffffffffffffffffffffffff821415620005dd57620005dc620005e8565b5b600182019050919050565b7f4e487b7100000000000000000000000000000000000000000000000000000000600052601160045260246000fd5b7f4e487b7100000000000000000000000000000000000000000000000000000000600052603260045260246000fd5b7f4e487b7100000000000000000000000000000000000000000000000000000000600052604160045260246000fd5b600080fd5b600080fd5b600080fd5b600080fd5b6000601f19601f8301169050919050565b620006a5816200051a565b8114620006b157600080fd5b50565b6116c680620006c46000396000f3fe608060405234801561001057600080fd5b50600436106100b45760003560e01c8063609ff1bd11610071578063609ff1bd1461017c5780639e7b8d611461019a578063a3ec138d146101b6578063b2bdfa7b146101e8578063cd838f0f14610206578063e2ba53f014610224576100b4565b80630121b93f146100b9578063013cf08b146100d557806309b1b3f2146101065780630dc96015146101245780632dd893c31461014257806333bc7bf01461015e575b600080fd5b6100d360048036038101906100ce9190610e41565b610242565b005b6100ef60048036038101906100ea9190610e41565b610389565b6040516100fd929190611197565b60405180910390f35b61010e6103bd565b60405161011b9190611138565b60405180910390f35b61012c6104a6565b604051610139919061115a565b60405180910390f35b61015c60048036038101906101579190610df8565b610606565b005b6101666107ed565b6040516101739190611250565b60405180910390f35b6101846107f3565b6040516101919190611250565b60405180910390f35b6101b460048036038101906101af9190610dcb565b61087b565b005b6101d060048036038101906101cb9190610dcb565b610a32565b6040516101df9392919061126b565b60405180910390f35b6101f0610a69565b6040516101fd91906110fb565b60405180910390f35b61020e610a8d565b60405161021b9190611116565b60405180910390f35b61022c610bed565b604051610239919061117c565b60405180910390f35b6000600160003373ffffffffffffffffffffffffffffffffffffffff1673ffffffffffffffffffffffffffffffffffffffff16815260200190815260200160002090506000816000015414156102cd576040517f08c379a00000000000000000000000000000000000000000000000000000000081526004016102c4906111f0565b60405180910390fd5b8060010160009054906101000a900460ff161561031f576040517f08c379a000000000000000000000000000000000000000000000000000000000815260040161031690611210565b60405180910390fd5b60018160010160006101000a81548160ff02191690831515021790555081816002018190555080600001546002838154811061035e5761035d61153e565b5b9060005260206000209060020201600101600082825461037e91906113ba565b925050819055505050565b6002818154811061039957600080fd5b90600052602060002090600202016000915090508060000154908060010154905082565b6060600060035467ffffffffffffffff8111156103dd576103dc61156d565b5b60405190808252806020026020018201604052801561041657816020015b610403610ce6565b8152602001906001900390816103fb5790505b50905060005b60035481101561049e5760006002828154811061043c5761043b61153e565b5b90600052602060002090600202019050806040518060400160405290816000820154815260200160018201548152505083838151811061047f5761047e61153e565b5b6020026020010181905250508080610496906114c6565b91505061041c565b508091505090565b6060600060035467ffffffffffffffff8111156104c6576104c561156d565b5b6040519080825280602002602001820160405280156104ff57816020015b6104ec610ce6565b8152602001906001900390816104e45790505b509050600060028054905067ffffffffffffffff8111156105235761052261156d565b5b6040519080825280602002602001820160405280156105515781602001602082028036833780820191505090505b50905060005b6003548110156105fd576000600282815481106105775761057661153e565b5b9060005260206000209060020201905080604051806040016040529081600082015481526020016001820154815250508483815181106105ba576105b961153e565b5b602002602001018190525080600101548383815181106105dd576105dc61153e565b5b6020026020010181815250505080806105f5906114c6565b915050610557565b50809250505090565b60008054906101000a900473ffffffffffffffffffffffffffffffffffffffff1673ffffffffffffffffffffffffffffffffffffffff163373ffffffffffffffffffffffffffffffffffffffff1614610694576040517f08c379a000000000000000000000000000000000000000000000000000000000815260040161068b90611230565b60405180910390fd5b60005b81518110156107e957600160008383815181106106b7576106b661153e565b5b602002602001015173ffffffffffffffffffffffffffffffffffffffff1673ffffffffffffffffffffffffffffffffffffffff16815260200190815260200160002060010160009054906101000a900460ff166107d6576000600160008484815181106107275761072661153e565b5b602002602001015173ffffffffffffffffffffffffffffffffffffffff1673ffffffffffffffffffffffffffffffffffffffff1681526020019081526020016000206000015414156107d557600180600084848151811061078b5761078a61153e565b5b602002602001015173ffffffffffffffffffffffffffffffffffffffff1673ffffffffffffffffffffffffffffffffffffffff168152602001908152602001600020600001819055505b5b80806107e1906114c6565b915050610697565b5050565b60035481565b6000806000905060005b60028054905081101561087657816002828154811061081f5761081e61153e565b5b9060005260206000209060020201600101541115610863576002818154811061084b5761084a61153e565b5b90600052602060002090600202016001015491508092505b808061086e906114c6565b9150506107fd565b505090565b60008054906101000a900473ffffffffffffffffffffffffffffffffffffffff1673ffffffffffffffffffffffffffffffffffffffff163373ffffffffffffffffffffffffffffffffffffffff1614610909576040517f08c379a000000000000000000000000000000000000000000000000000000000815260040161090090611230565b60405180910390fd5b600160008273ffffffffffffffffffffffffffffffffffffffff1673ffffffffffffffffffffffffffffffffffffffff16815260200190815260200160002060010160009054906101000a900460ff1615610999576040517f08c379a000000000000000000000000000000000000000000000000000000000815260040161099090611210565b60405180910390fd5b6000600160008373ffffffffffffffffffffffffffffffffffffffff1673ffffffffffffffffffffffffffffffffffffffff16815260200190815260200160002060000154146109e857600080fd5b60018060008373ffffffffffffffffffffffffffffffffffffffff1673ffffffffffffffffffffffffffffffffffffffff1681526020019081526020016000206000018190555050565b60016020528060005260406000206000915090508060000154908060010160009054906101000a900460ff16908060020154905083565b60008054906101000a900473ffffffffffffffffffffffffffffffffffffffff1681565b6060600060035467ffffffffffffffff811115610aad57610aac61156d565b5b604051908082528060200260200182016040528015610ae657816020015b610ad3610ce6565b815260200190600190039081610acb5790505b509050600060028054905067ffffffffffffffff811115610b0a57610b0961156d565b5b604051908082528060200260200182016040528015610b385781602001602082028036833780820191505090505b50905060005b600354811015610be457600060028281548110610b5e57610b5d61153e565b5b906000526020600020906002020190508060405180604001604052908160008201548152602001600182015481525050848381518110610ba157610ba061153e565b5b60200260200101819052508060000154838381518110610bc457610bc361153e565b5b602002602001018181525050508080610bdc906114c6565b915050610b3e565b50809250505090565b60006002610bf96107f3565b81548110610c0a57610c0961153e565b5b906000526020600020906002020160000154905090565b610cb98282604051602401610c379291906111c0565b6040516020818303038152906040527f9710a9d0000000000000000000000000000000000000000000000000000000007bffffffffffffffffffffffffffffffffffffffffffffffffffffffff19166020820180517bffffffffffffffffffffffffffffffffffffffffffffffffffffffff8381831617835250505050610cbd565b5050565b60008151905060006a636f6e736f6c652e6c6f679050602083016000808483855afa5050505050565b604051806040016040528060008019168152602001600081525090565b6000610d16610d11846112c7565b6112a2565b90508083825260208201905082856020860282011115610d3957610d386115a1565b5b60005b85811015610d695781610d4f8882610d73565b845260208401935060208301925050600181019050610d3c565b5050509392505050565b600081359050610d8281611662565b92915050565b600082601f830112610d9d57610d9c61159c565b5b8135610dad848260208601610d03565b91505092915050565b600081359050610dc581611679565b92915050565b600060208284031215610de157610de06115ab565b5b6000610def84828501610d73565b91505092915050565b600060208284031215610e0e57610e0d6115ab565b5b600082013567ffffffffffffffff811115610e2c57610e2b6115a6565b5b610e3884828501610d88565b91505092915050565b600060208284031215610e5757610e566115ab565b5b6000610e6584828501610db6565b91505092915050565b6000610e7a8383610fee565b60208301905092915050565b6000610e9283836110ae565b60408301905092915050565b6000610eaa83836110dd565b60208301905092915050565b610ebf81611410565b82525050565b6000610ed082611323565b610eda8185611376565b9350610ee5836112f3565b8060005b83811015610f16578151610efd8882610e6e565b9750610f088361134f565b925050600181019050610ee9565b5085935050505092915050565b6000610f2e8261132e565b610f388185611387565b9350610f4383611303565b8060005b83811015610f74578151610f5b8882610e86565b9750610f668361135c565b925050600181019050610f47565b5085935050505092915050565b6000610f8c82611339565b610f968185611398565b9350610fa183611313565b8060005b83811015610fd2578151610fb98882610e9e565b9750610fc483611369565b925050600181019050610fa5565b5085935050505092915050565b610fe881611422565b82525050565b610ff78161142e565b82525050565b6110068161142e565b82525050565b600061101782611344565b61102181856113a9565b9350611031818560208601611462565b61103a816115b0565b840191505092915050565b60006110526010836113a9565b915061105d826115c1565b602082019050919050565b6000611075601a836113a9565b9150611080826115ea565b602082019050919050565b60006110986024836113a9565b91506110a382611613565b604082019050919050565b6040820160008201516110c46000850182610fee565b5060208201516110d760208501826110dd565b50505050565b6110e681611458565b82525050565b6110f581611458565b82525050565b60006020820190506111106000830184610eb6565b92915050565b600060208201905081810360008301526111308184610ec5565b905092915050565b600060208201905081810360008301526111528184610f23565b905092915050565b600060208201905081810360008301526111748184610f81565b905092915050565b60006020820190506111916000830184610ffd565b92915050565b60006040820190506111ac6000830185610ffd565b6111b960208301846110ec565b9392505050565b600060408201905081810360008301526111da818561100c565b90506111e960208301846110ec565b9392505050565b6000602082019050818103600083015261120981611045565b9050919050565b6000602082019050818103600083015261122981611068565b9050919050565b600060208201905081810360008301526112498161108b565b9050919050565b600060208201905061126560008301846110ec565b92915050565b600060608201905061128060008301866110ec565b61128d6020830185610fdf565b61129a60408301846110ec565b949350505050565b60006112ac6112bd565b90506112b88282611495565b919050565b6000604051905090565b600067ffffffffffffffff8211156112e2576112e161156d565b5b602082029050602081019050919050565b6000819050602082019050919050565b6000819050602082019050919050565b6000819050602082019050919050565b600081519050919050565b600081519050919050565b600081519050919050565b600081519050919050565b6000602082019050919050565b6000602082019050919050565b6000602082019050919050565b600082825260208201905092915050565b600082825260208201905092915050565b600082825260208201905092915050565b600082825260208201905092915050565b60006113c582611458565b91506113d083611458565b9250827fffffffffffffffffffffffffffffffffffffffffffffffffffffffffffffffff038211156114055761140461150f565b5b828201905092915050565b600061141b82611438565b9050919050565b60008115159050919050565b6000819050919050565b600073ffffffffffffffffffffffffffffffffffffffff82169050919050565b6000819050919050565b60005b83811015611480578082015181840152602081019050611465565b8381111561148f576000848401525b50505050565b61149e826115b0565b810181811067ffffffffffffffff821117156114bd576114bc61156d565b5b80604052505050565b60006114d182611458565b91507fffffffffffffffffffffffffffffffffffffffffffffffffffffffffffffffff8214156115045761150361150f565b5b600182019050919050565b7f4e487b7100000000000000000000000000000000000000000000000000000000600052601160045260246000fd5b7f4e487b7100000000000000000000000000000000000000000000000000000000600052603260045260246000fd5b7f4e487b7100000000000000000000000000000000000000000000000000000000600052604160045260246000fd5b600080fd5b600080fd5b600080fd5b600080fd5b6000601f19601f8301169050919050565b7f4e6f20726967687420746f20766f746500000000000000000000000000000000600082015250565b7f54686973206164647265737320616c726561647920766f746564000000000000600082015250565b7f4f6e6c7920746865206f776e65722063616e2075736520746869732066756e6360008201527f74696f6e00000000000000000000000000000000000000000000000000000000602082015250565b61166b81611410565b811461167657600080fd5b50565b61168281611458565b811461168d57600080fd5b5056fea2646970667358221220076baf41abf63765e1ee230f71594452ef9d23ef5bfc2a585dc019952597b72f64736f6c63430008070033",
  "linkReferences": {},
  "deployedLinkReferences": {}
}