{
  "_format": "hh-sol-artifact-1",
  "contractName": "OneVote",
  "sourceName": "contracts/OneVote.sol",
  "abi": [
    {
      "inputs": [
        {
          "internalType": "bytes32[]",
          "name": "proposalNames",
          "type": "bytes32[]"
        }
      ],
      "stateMutability": "nonpayable",
      "type": "constructor"
    },
    {
      "inputs": [],
      "name": "_owner",
      "outputs": [
        {
          "internalType": "address",
          "name": "",
          "type": "address"
        }
      ],
      "stateMutability": "view",
      "type": "function"
    },
    {
      "inputs": [],
      "name": "getNames",
      "outputs": [
        {
          "internalType": "bytes32[]",
          "name": "",
          "type": "bytes32[]"
        }
      ],
      "stateMutability": "view",
      "type": "function"
    },
    {
      "inputs": [],
      "name": "getStruct",
      "outputs": [
        {
          "components": [
            {
              "internalType": "bytes32",
              "name": "name",
              "type": "bytes32"
            },
            {
              "internalType": "uint256",
              "name": "voteCount",
              "type": "uint256"
            }
          ],
          "internalType": "struct OneVote.Proposal[]",
          "name": "",
          "type": "tuple[]"
        }
      ],
      "stateMutability": "view",
      "type": "function"
    },
    {
      "inputs": [
        {
          "internalType": "address",
          "name": "voter",
          "type": "address"
        }
      ],
      "name": "giveRightToVote",
      "outputs": [],
      "stateMutability": "nonpayable",
      "type": "function"
    },
    {
      "inputs": [],
      "name": "propCount",
      "outputs": [
        {
          "internalType": "uint256",
          "name": "",
          "type": "uint256"
        }
      ],
      "stateMutability": "view",
      "type": "function"
    },
    {
      "inputs": [
        {
          "internalType": "uint256",
          "name": "",
          "type": "uint256"
        }
      ],
      "name": "proposals",
      "outputs": [
        {
          "internalType": "bytes32",
          "name": "name",
          "type": "bytes32"
        },
        {
          "internalType": "uint256",
          "name": "voteCount",
          "type": "uint256"
        }
      ],
      "stateMutability": "view",
      "type": "function"
    },
    {
      "inputs": [
        {
          "internalType": "uint256",
          "name": "proposal",
          "type": "uint256"
        }
      ],
      "name": "vote",
      "outputs": [],
      "stateMutability": "nonpayable",
      "type": "function"
    },
    {
      "inputs": [
        {
          "internalType": "address",
          "name": "",
          "type": "address"
        }
      ],
      "name": "voters",
      "outputs": [
        {
          "internalType": "uint256",
          "name": "weight",
          "type": "uint256"
        },
        {
          "internalType": "bool",
          "name": "voted",
          "type": "bool"
        },
        {
          "internalType": "uint256",
          "name": "vote",
          "type": "uint256"
        }
      ],
      "stateMutability": "view",
      "type": "function"
    },
    {
      "inputs": [],
      "name": "winnerName",
      "outputs": [
        {
          "internalType": "bytes32",
          "name": "winnerName_",
          "type": "bytes32"
        }
      ],
      "stateMutability": "view",
      "type": "function"
    },
    {
      "inputs": [],
      "name": "winningProposal",
      "outputs": [
        {
          "internalType": "uint256",
          "name": "winningProposal_",
          "type": "uint256"
        }
      ],
      "stateMutability": "view",
      "type": "function"
    }
  ],
  "bytecode": "0x60806040523480156200001157600080fd5b50604051620017aa380380620017aa8339818101604052810190620000379190620003cf565b6000600381905550336000806101000a81548173ffffffffffffffffffffffffffffffffffffffff021916908373ffffffffffffffffffffffffffffffffffffffff16021790555060018060008060009054906101000a900473ffffffffffffffffffffffffffffffffffffffff1673ffffffffffffffffffffffffffffffffffffffff1673ffffffffffffffffffffffffffffffffffffffff16815260200190815260200160002060000181905550620001346040518060400160405280601881526020017f4e756d626572206f662063616e646964617465733a202573000000000000000081525082516200023b60201b6200088a1760201c565b60005b815181101562000233576002604051806040016040528084848151811062000164576200016362000617565b5b60200260200101518152602001600081525090806001815401808255809150506001900390600052602060002090600202016000909190919091506000820151816000015560208201518160010155505060036000815480929190620001ca906200059a565b91905055506200021d6040518060400160405280601f81526020017f5468652070726f706f73616c206e756d62657220257320776173206d616465008152506003546200023b60201b6200088a1760201c565b80806200022a906200059a565b91505062000137565b5050620006b4565b620002dd82826040516024016200025492919062000472565b6040516020818303038152906040527f9710a9d0000000000000000000000000000000000000000000000000000000007bffffffffffffffffffffffffffffffffffffffffffffffffffffffff19166020820180517bffffffffffffffffffffffffffffffffffffffffffffffffffffffff8381831617835250505050620002e160201b60201c565b5050565b60008151905060006a636f6e736f6c652e6c6f679050602083016000808483855afa5050505050565b6000620003216200031b84620004cf565b620004a6565b905080838252602082019050828560208602820111156200034757620003466200067a565b5b60005b858110156200037b5781620003608882620003b8565b8452602084019350602083019250506001810190506200034a565b5050509392505050565b600082601f8301126200039d576200039c62000675565b5b8151620003af8482602086016200030a565b91505092915050565b600081519050620003c9816200069a565b92915050565b600060208284031215620003e857620003e762000684565b5b600082015167ffffffffffffffff8111156200040957620004086200067f565b5b620004178482850162000385565b91505092915050565b60006200042d82620004fe565b62000439818562000509565b93506200044b8185602086016200052e565b620004568162000689565b840191505092915050565b6200046c8162000524565b82525050565b600060408201905081810360008301526200048e818562000420565b90506200049f602083018462000461565b9392505050565b6000620004b2620004c5565b9050620004c0828262000564565b919050565b6000604051905090565b600067ffffffffffffffff821115620004ed57620004ec62000646565b5b602082029050602081019050919050565b600081519050919050565b600082825260208201905092915050565b6000819050919050565b6000819050919050565b60005b838110156200054e57808201518184015260208101905062000531565b838111156200055e576000848401525b50505050565b6200056f8262000689565b810181811067ffffffffffffffff8211171562000591576200059062000646565b5b80604052505050565b6000620005a78262000524565b91507fffffffffffffffffffffffffffffffffffffffffffffffffffffffffffffffff821415620005dd57620005dc620005e8565b5b600182019050919050565b7f4e487b7100000000000000000000000000000000000000000000000000000000600052601160045260246000fd5b7f4e487b7100000000000000000000000000000000000000000000000000000000600052603260045260246000fd5b7f4e487b7100000000000000000000000000000000000000000000000000000000600052604160045260246000fd5b600080fd5b600080fd5b600080fd5b600080fd5b6000601f19601f8301169050919050565b620006a5816200051a565b8114620006b157600080fd5b50565b6110e680620006c46000396000f3fe608060405234801561001057600080fd5b506004361061009e5760003560e01c80639e7b8d61116100665780639e7b8d611461014a578063a3ec138d14610166578063b2bdfa7b14610198578063cd838f0f146101b6578063e2ba53f0146101d45761009e565b80630121b93f146100a3578063013cf08b146100bf57806309b1b3f2146100f057806333bc7bf01461010e578063609ff1bd1461012c575b600080fd5b6100bd60048036038101906100b891906109c3565b6101f2565b005b6100d960048036038101906100d491906109c3565b610339565b6040516100e7929190610c81565b60405180910390f35b6100f861036d565b6040516101059190610c44565b60405180910390f35b610116610456565b6040516101239190610d3a565b60405180910390f35b61013461045c565b6040516101419190610d3a565b60405180910390f35b610164600480360381019061015f9190610996565b6104e4565b005b610180600480360381019061017b9190610996565b61069b565b60405161018f93929190610d55565b60405180910390f35b6101a06106d2565b6040516101ad9190610c07565b60405180910390f35b6101be6106f6565b6040516101cb9190610c22565b60405180910390f35b6101dc610856565b6040516101e99190610c66565b60405180910390f35b6000600160003373ffffffffffffffffffffffffffffffffffffffff1673ffffffffffffffffffffffffffffffffffffffff168152602001908152602001600020905060008160000154141561027d576040517f08c379a000000000000000000000000000000000000000000000000000000000815260040161027490610cda565b60405180910390fd5b8060010160009054906101000a900460ff16156102cf576040517f08c379a00000000000000000000000000000000000000000000000000000000081526004016102c690610cfa565b60405180910390fd5b60018160010160006101000a81548160ff02191690831515021790555081816002018190555080600001546002838154811061030e5761030d610f6d565b5b9060005260206000209060020201600101600082825461032e9190610e1a565b925050819055505050565b6002818154811061034957600080fd5b90600052602060002090600202016000915090508060000154908060010154905082565b6060600060035467ffffffffffffffff81111561038d5761038c610f9c565b5b6040519080825280602002602001820160405280156103c657816020015b6103b361094f565b8152602001906001900390816103ab5790505b50905060005b60035481101561044e576000600282815481106103ec576103eb610f6d565b5b90600052602060002090600202019050806040518060400160405290816000820154815260200160018201548152505083838151811061042f5761042e610f6d565b5b602002602001018190525050808061044690610ef5565b9150506103cc565b508091505090565b60035481565b6000806000905060005b6002805490508110156104df57816002828154811061048857610487610f6d565b5b90600052602060002090600202016001015411156104cc57600281815481106104b4576104b3610f6d565b5b90600052602060002090600202016001015491508092505b80806104d790610ef5565b915050610466565b505090565b60008054906101000a900473ffffffffffffffffffffffffffffffffffffffff1673ffffffffffffffffffffffffffffffffffffffff163373ffffffffffffffffffffffffffffffffffffffff1614610572576040517f08c379a000000000000000000000000000000000000000000000000000000000815260040161056990610d1a565b60405180910390fd5b600160008273ffffffffffffffffffffffffffffffffffffffff1673ffffffffffffffffffffffffffffffffffffffff16815260200190815260200160002060010160009054906101000a900460ff1615610602576040517f08c379a00000000000000000000000000000000000000000000000000000000081526004016105f990610cfa565b60405180910390fd5b6000600160008373ffffffffffffffffffffffffffffffffffffffff1673ffffffffffffffffffffffffffffffffffffffff168152602001908152602001600020600001541461065157600080fd5b60018060008373ffffffffffffffffffffffffffffffffffffffff1673ffffffffffffffffffffffffffffffffffffffff1681526020019081526020016000206000018190555050565b60016020528060005260406000206000915090508060000154908060010160009054906101000a900460ff16908060020154905083565b60008054906101000a900473ffffffffffffffffffffffffffffffffffffffff1681565b6060600060035467ffffffffffffffff81111561071657610715610f9c565b5b60405190808252806020026020018201604052801561074f57816020015b61073c61094f565b8152602001906001900390816107345790505b509050600060028054905067ffffffffffffffff81111561077357610772610f9c565b5b6040519080825280602002602001820160405280156107a15781602001602082028036833780820191505090505b50905060005b60035481101561084d576000600282815481106107c7576107c6610f6d565b5b90600052602060002090600202019050806040518060400160405290816000820154815260200160018201548152505084838151811061080a57610809610f6d565b5b6020026020010181905250806000015483838151811061082d5761082c610f6d565b5b60200260200101818152505050808061084590610ef5565b9150506107a7565b50809250505090565b6000600261086261045c565b8154811061087357610872610f6d565b5b906000526020600020906002020160000154905090565b61092282826040516024016108a0929190610caa565b6040516020818303038152906040527f9710a9d0000000000000000000000000000000000000000000000000000000007bffffffffffffffffffffffffffffffffffffffffffffffffffffffff19166020820180517bffffffffffffffffffffffffffffffffffffffffffffffffffffffff8381831617835250505050610926565b5050565b60008151905060006a636f6e736f6c652e6c6f679050602083016000808483855afa5050505050565b604051806040016040528060008019168152602001600081525090565b60008135905061097b81611082565b92915050565b60008135905061099081611099565b92915050565b6000602082840312156109ac576109ab610fcb565b5b60006109ba8482850161096c565b91505092915050565b6000602082840312156109d9576109d8610fcb565b5b60006109e784828501610981565b91505092915050565b60006109fc8383610afa565b60208301905092915050565b6000610a148383610bba565b60408301905092915050565b610a2981610e70565b82525050565b6000610a3a82610dac565b610a448185610de7565b9350610a4f83610d8c565b8060005b83811015610a80578151610a6788826109f0565b9750610a7283610dcd565b925050600181019050610a53565b5085935050505092915050565b6000610a9882610db7565b610aa28185610df8565b9350610aad83610d9c565b8060005b83811015610ade578151610ac58882610a08565b9750610ad083610dda565b925050600181019050610ab1565b5085935050505092915050565b610af481610e82565b82525050565b610b0381610e8e565b82525050565b610b1281610e8e565b82525050565b6000610b2382610dc2565b610b2d8185610e09565b9350610b3d818560208601610ec2565b610b4681610fd0565b840191505092915050565b6000610b5e601083610e09565b9150610b6982610fe1565b602082019050919050565b6000610b81601a83610e09565b9150610b8c8261100a565b602082019050919050565b6000610ba4602483610e09565b9150610baf82611033565b604082019050919050565b604082016000820151610bd06000850182610afa565b506020820151610be36020850182610be9565b50505050565b610bf281610eb8565b82525050565b610c0181610eb8565b82525050565b6000602082019050610c1c6000830184610a20565b92915050565b60006020820190508181036000830152610c3c8184610a2f565b905092915050565b60006020820190508181036000830152610c5e8184610a8d565b905092915050565b6000602082019050610c7b6000830184610b09565b92915050565b6000604082019050610c966000830185610b09565b610ca36020830184610bf8565b9392505050565b60006040820190508181036000830152610cc48185610b18565b9050610cd36020830184610bf8565b9392505050565b60006020820190508181036000830152610cf381610b51565b9050919050565b60006020820190508181036000830152610d1381610b74565b9050919050565b60006020820190508181036000830152610d3381610b97565b9050919050565b6000602082019050610d4f6000830184610bf8565b92915050565b6000606082019050610d6a6000830186610bf8565b610d776020830185610aeb565b610d846040830184610bf8565b949350505050565b6000819050602082019050919050565b6000819050602082019050919050565b600081519050919050565b600081519050919050565b600081519050919050565b6000602082019050919050565b6000602082019050919050565b600082825260208201905092915050565b600082825260208201905092915050565b600082825260208201905092915050565b6000610e2582610eb8565b9150610e3083610eb8565b9250827fffffffffffffffffffffffffffffffffffffffffffffffffffffffffffffffff03821115610e6557610e64610f3e565b5b828201905092915050565b6000610e7b82610e98565b9050919050565b60008115159050919050565b6000819050919050565b600073ffffffffffffffffffffffffffffffffffffffff82169050919050565b6000819050919050565b60005b83811015610ee0578082015181840152602081019050610ec5565b83811115610eef576000848401525b50505050565b6000610f0082610eb8565b91507fffffffffffffffffffffffffffffffffffffffffffffffffffffffffffffffff821415610f3357610f32610f3e565b5b600182019050919050565b7f4e487b7100000000000000000000000000000000000000000000000000000000600052601160045260246000fd5b7f4e487b7100000000000000000000000000000000000000000000000000000000600052603260045260246000fd5b7f4e487b7100000000000000000000000000000000000000000000000000000000600052604160045260246000fd5b600080fd5b6000601f19601f8301169050919050565b7f4e6f20726967687420746f20766f746500000000000000000000000000000000600082015250565b7f54686973206164647265737320616c726561647920766f746564000000000000600082015250565b7f4f6e6c7920746865206f776e65722063616e2075736520746869732066756e6360008201527f74696f6e00000000000000000000000000000000000000000000000000000000602082015250565b61108b81610e70565b811461109657600080fd5b50565b6110a281610eb8565b81146110ad57600080fd5b5056fea2646970667358221220dca7f9ffdf4fc418df51ef2e63135697c6b8da4ab44dd1ad79d8502d90b3036b64736f6c63430008070033",
  "linkReferences": {},
  "deployedLinkReferences": {}
}