{
  "_format": "hh-sol-artifact-1",
  "contractName": "OneVote",
  "sourceName": "contracts/OneVote.sol",
  "abi": [
    {
      "inputs": [
        {
          "internalType": "bytes32[]",
          "name": "proposalNames",
          "type": "bytes32[]"
        }
      ],
      "stateMutability": "nonpayable",
      "type": "constructor"
    },
    {
      "inputs": [],
      "name": "_owner",
      "outputs": [
        {
          "internalType": "address",
          "name": "",
          "type": "address"
        }
      ],
      "stateMutability": "view",
      "type": "function"
    },
    {
      "inputs": [
        {
          "internalType": "address",
          "name": "voter",
          "type": "address"
        }
      ],
      "name": "giveRightToVote",
      "outputs": [],
      "stateMutability": "nonpayable",
      "type": "function"
    },
    {
      "inputs": [
        {
          "internalType": "uint256",
          "name": "",
          "type": "uint256"
        }
      ],
      "name": "proposals",
      "outputs": [
        {
          "internalType": "bytes32",
          "name": "name",
          "type": "bytes32"
        },
        {
          "internalType": "uint256",
          "name": "voteCount",
          "type": "uint256"
        }
      ],
      "stateMutability": "view",
      "type": "function"
    },
    {
      "inputs": [
        {
          "internalType": "uint256",
          "name": "proposal",
          "type": "uint256"
        }
      ],
      "name": "vote",
      "outputs": [],
      "stateMutability": "nonpayable",
      "type": "function"
    },
    {
      "inputs": [
        {
          "internalType": "address",
          "name": "",
          "type": "address"
        }
      ],
      "name": "voters",
      "outputs": [
        {
          "internalType": "uint256",
          "name": "weight",
          "type": "uint256"
        },
        {
          "internalType": "bool",
          "name": "voted",
          "type": "bool"
        },
        {
          "internalType": "uint256",
          "name": "vote",
          "type": "uint256"
        }
      ],
      "stateMutability": "view",
      "type": "function"
    },
    {
      "inputs": [],
      "name": "winnerName",
      "outputs": [
        {
          "internalType": "bytes32",
          "name": "winnerName_",
          "type": "bytes32"
        }
      ],
      "stateMutability": "view",
      "type": "function"
    },
    {
      "inputs": [],
      "name": "winningProposal",
      "outputs": [
        {
          "internalType": "uint256",
          "name": "winningProposal_",
          "type": "uint256"
        }
      ],
      "stateMutability": "view",
      "type": "function"
    }
  ],
  "bytecode": "0x60806040523480156200001157600080fd5b5060405162000ec438038062000ec4833981810160405281019062000037919062000243565b336000806101000a81548173ffffffffffffffffffffffffffffffffffffffff021916908373ffffffffffffffffffffffffffffffffffffffff16021790555060018060008060009054906101000a900473ffffffffffffffffffffffffffffffffffffffff1673ffffffffffffffffffffffffffffffffffffffff1673ffffffffffffffffffffffffffffffffffffffff1681526020019081526020016000206000018190555060005b81518110156200017657600260405180604001604052808484815181106200010f576200010e620003b3565b5b60200260200101518152602001600081525090806001815401808255809150506001900390600052602060002090600202016000909190919091506000820151816000015560208201518160010155505080806200016d9062000336565b915050620000e2565b505062000450565b6000620001956200018f84620002bd565b62000294565b90508083825260208201905082856020860282011115620001bb57620001ba62000416565b5b60005b85811015620001ef5781620001d488826200022c565b845260208401935060208301925050600181019050620001be565b5050509392505050565b600082601f83011262000211576200021062000411565b5b8151620002238482602086016200017e565b91505092915050565b6000815190506200023d8162000436565b92915050565b6000602082840312156200025c576200025b62000420565b5b600082015167ffffffffffffffff8111156200027d576200027c6200041b565b5b6200028b84828501620001f9565b91505092915050565b6000620002a0620002b3565b9050620002ae828262000300565b919050565b6000604051905090565b600067ffffffffffffffff821115620002db57620002da620003e2565b5b602082029050602081019050919050565b6000819050919050565b6000819050919050565b6200030b8262000425565b810181811067ffffffffffffffff821117156200032d576200032c620003e2565b5b80604052505050565b60006200034382620002f6565b91507fffffffffffffffffffffffffffffffffffffffffffffffffffffffffffffffff82141562000379576200037862000384565b5b600182019050919050565b7f4e487b7100000000000000000000000000000000000000000000000000000000600052601160045260246000fd5b7f4e487b7100000000000000000000000000000000000000000000000000000000600052603260045260246000fd5b7f4e487b7100000000000000000000000000000000000000000000000000000000600052604160045260246000fd5b600080fd5b600080fd5b600080fd5b600080fd5b6000601f19601f8301169050919050565b6200044181620002ec565b81146200044d57600080fd5b50565b610a6480620004606000396000f3fe608060405234801561001057600080fd5b506004361061007d5760003560e01c80639e7b8d611161005b5780639e7b8d61146100ed578063a3ec138d14610109578063b2bdfa7b1461013b578063e2ba53f0146101595761007d565b80630121b93f14610082578063013cf08b1461009e578063609ff1bd146100cf575b600080fd5b61009c60048036038101906100979190610617565b610177565b005b6100b860048036038101906100b39190610617565b6102be565b6040516100c692919061071f565b60405180910390f35b6100d76102f2565b6040516100e491906107a8565b60405180910390f35b610107600480360381019061010291906105ea565b61037a565b005b610123600480360381019061011e91906105ea565b610531565b604051610132939291906107c3565b60405180910390f35b610143610568565b60405161015091906106e9565b60405180910390f35b61016161058c565b60405161016e9190610704565b60405180910390f35b6000600160003373ffffffffffffffffffffffffffffffffffffffff1673ffffffffffffffffffffffffffffffffffffffff1681526020019081526020016000209050600081600001541415610202576040517f08c379a00000000000000000000000000000000000000000000000000000000081526004016101f990610748565b60405180910390fd5b8060010160009054906101000a900460ff1615610254576040517f08c379a000000000000000000000000000000000000000000000000000000000815260040161024b90610768565b60405180910390fd5b60018160010160006101000a81548160ff0219169083151502179055508181600201819055508060000154600283815481106102935761029261092b565b5b906000526020600020906002020160010160008282546102b3919061080b565b925050819055505050565b600281815481106102ce57600080fd5b90600052602060002090600202016000915090508060000154908060010154905082565b6000806000905060005b60028054905081101561037557816002828154811061031e5761031d61092b565b5b9060005260206000209060020201600101541115610362576002818154811061034a5761034961092b565b5b90600052602060002090600202016001015491508092505b808061036d906108b3565b9150506102fc565b505090565b60008054906101000a900473ffffffffffffffffffffffffffffffffffffffff1673ffffffffffffffffffffffffffffffffffffffff163373ffffffffffffffffffffffffffffffffffffffff1614610408576040517f08c379a00000000000000000000000000000000000000000000000000000000081526004016103ff90610788565b60405180910390fd5b600160008273ffffffffffffffffffffffffffffffffffffffff1673ffffffffffffffffffffffffffffffffffffffff16815260200190815260200160002060010160009054906101000a900460ff1615610498576040517f08c379a000000000000000000000000000000000000000000000000000000000815260040161048f90610768565b60405180910390fd5b6000600160008373ffffffffffffffffffffffffffffffffffffffff1673ffffffffffffffffffffffffffffffffffffffff16815260200190815260200160002060000154146104e757600080fd5b60018060008373ffffffffffffffffffffffffffffffffffffffff1673ffffffffffffffffffffffffffffffffffffffff1681526020019081526020016000206000018190555050565b60016020528060005260406000206000915090508060000154908060010160009054906101000a900460ff16908060020154905083565b60008054906101000a900473ffffffffffffffffffffffffffffffffffffffff1681565b600060026105986102f2565b815481106105a9576105a861092b565b5b906000526020600020906002020160000154905090565b6000813590506105cf81610a00565b92915050565b6000813590506105e481610a17565b92915050565b600060208284031215610600576105ff61095a565b5b600061060e848285016105c0565b91505092915050565b60006020828403121561062d5761062c61095a565b5b600061063b848285016105d5565b91505092915050565b61064d81610861565b82525050565b61065c81610873565b82525050565b61066b8161087f565b82525050565b600061067e6010836107fa565b91506106898261095f565b602082019050919050565b60006106a1601a836107fa565b91506106ac82610988565b602082019050919050565b60006106c46024836107fa565b91506106cf826109b1565b604082019050919050565b6106e3816108a9565b82525050565b60006020820190506106fe6000830184610644565b92915050565b60006020820190506107196000830184610662565b92915050565b60006040820190506107346000830185610662565b61074160208301846106da565b9392505050565b6000602082019050818103600083015261076181610671565b9050919050565b6000602082019050818103600083015261078181610694565b9050919050565b600060208201905081810360008301526107a1816106b7565b9050919050565b60006020820190506107bd60008301846106da565b92915050565b60006060820190506107d860008301866106da565b6107e56020830185610653565b6107f260408301846106da565b949350505050565b600082825260208201905092915050565b6000610816826108a9565b9150610821836108a9565b9250827fffffffffffffffffffffffffffffffffffffffffffffffffffffffffffffffff03821115610856576108556108fc565b5b828201905092915050565b600061086c82610889565b9050919050565b60008115159050919050565b6000819050919050565b600073ffffffffffffffffffffffffffffffffffffffff82169050919050565b6000819050919050565b60006108be826108a9565b91507fffffffffffffffffffffffffffffffffffffffffffffffffffffffffffffffff8214156108f1576108f06108fc565b5b600182019050919050565b7f4e487b7100000000000000000000000000000000000000000000000000000000600052601160045260246000fd5b7f4e487b7100000000000000000000000000000000000000000000000000000000600052603260045260246000fd5b600080fd5b7f4e6f20726967687420746f20766f746500000000000000000000000000000000600082015250565b7f54686973206164647265737320616c726561647920766f746564000000000000600082015250565b7f4f6e6c7920746865206f776e65722063616e2075736520746869732066756e6360008201527f74696f6e00000000000000000000000000000000000000000000000000000000602082015250565b610a0981610861565b8114610a1457600080fd5b50565b610a20816108a9565b8114610a2b57600080fd5b5056fea2646970667358221220d12554b69308b414797c57ab4ea0810899deaff73900c8443aa56bd4e3920f0b64736f6c63430008070033",
  "linkReferences": {},
  "deployedLinkReferences": {}
}